:1000000000000420655F0000A95F0000AB5F0000F6
:10001000AD5F0000AF5F0000B15F000000000000B6
:10002000000000000000000000000000B35F0000BE
:10003000B55F000000000000B75F0000B95F00007E
:10004000195C00008D900000BB5F0000E55E0000C1
:10005000BB5F0000BB5F0000BB5F0000BB5F000038
:10006000BB5F0000BB5F0000BB5F0000BB5F000028
:10007000BB5F000005480000BB5F0000BB5F0000E5
:10008000BB5F0000BB5F0000BB5F0000BB5F000008
:10009000BB5F0000BB5F0000BB5F0000BB5F0000F8
:1000A000BB5F0000BB5F0000BB5F0000BB5F0000E8
:1000B000BB5F0000BB5F000000000000000000000C
:1000C000BB5F0000BB5F0000BB5F0000BB5F0000C8
:1000D0008D400000BB5F0000BB5F0000BB5F000005
:1000E000BB5F0000BB5F0000BB5F000000000000C2
:1000F00000000000BB5F000000000000BB5F0000CC
:1001000000000000000000000000000000000000EF
:1001100000000000000000000000000000000000DF
:1001200000000000000000000000000000000000CF
:1001300000000000000000000000000000000000BF
:1001400000000000000000000000000000000000AF
:10015000000000000000000000000000000000009F
:10016000000000000000000000000000000000008F
:10017000000000000000000000000000000000007F
:10018000000000000000000000000000000000006F
:10019000000000000000000000000000000000005F
:1001A000000000000000000000000000000000004F
:1001B000000000000000000000000000000000003F
:1001C000000000000000000000000000000000002F
:1001D000000000000000000000000000000000001F
:1001E000000000000000000000000000000000000F
:1001F00000000000000000000000000000000000FF
:100200000348044B834202D0034B03B118477047A5
:1002100010010020100100200000000005480649E0
:100220000B1AD90F01EBA301491002D0034B03B104
:100230001847704710010020100100200000000046
:1002400010B5064C237843B9FFF7DAFF044B13B11E
:100250000448AFF300800123237010BD100100207B
:1002600000000000B402010008B5044B1BB10449B2
:100270000448AFF30080BDE80840CFE7000000006D
:1002800014010020B4020100A3F5803A704700BFBA
:10029000154B002B08BF114B9D46FFF7F5FF0021C2
:1002A0008B460F461148124A121A0BF0DDF90C4B1F
:1002B000002B00D098470B4B002B00D09847002014
:1002C000002104000D000B480BF00CF80BF066F851
:1002D0002000290000F012F80BF010F800000800D0
:1002E00000000000000000000000042010010020B9
:1002F0003023002025B300007047000070B505468C
:100300000E463146284604F0B1FF02F050FA04468A
:1003100028B90B4B0B4A0C486A210AF0BFFF00F0CA
:1003200069F804F0D5FF18B1204602F044FAE8E776
:10033000204602F0F8FA204604F0D0FFF1E700BFB3
:1003400098DC000000DD0000A1DC000000F54F702B
:1003500002F0A4BBF7B50446002501260F4600F0C5
:10036000B9FC84F83853234684F8395339461D4A7A
:1003700084F83A6304F54F7002F07BFB4FF40203FC
:10038000C4F84433FB22822384F8463584F84B3585
:1003900084F84725201D22461349A4F8485384F8C1
:1003A0004A5384F8486584F8495584F84A5584F8D6
:1003B0004C5584F84D5584F84E5584F84F5500F04F
:1003C00080F9224609490A4805F090F9052300966C
:1003D00004F5EA62194604F24B5005F003FA204690
:1003E00003B0F0BDE90500004D0300006706000002
:1003F0002505000010B5054C01462046FFF7AAFF71
:1004000000F0E6FC844200D0FEE710BD3001002081
:10041000F7B5BDF82470042F73D9BDF82040042C23
:100420006FD9042A6DD91C7804F00304022C68D11A
:100430000C7804F00304022C63D190F839537E1F2A
:10044000B6B205F0FF04002D59D193F804C0DD7851
:1004500055EA0C250CD0AE420AD391F802E091F88F
:1004600001C04CEA0E2C654502D8012480F83943BE
:1004700090F83853012D5FFA85FC10D10D79C978B9
:1004800051EA05210BD08E4209D39D785B7843EA6F
:100490000523994203D8022380F83833644690F844
:1004A0003A335BB157B14AB1002380F83A330223A3
:1004B00080F8463380F8463580F84B3590F838336D
:1004C000012B20D1B0F8441300F2463690F83933AE
:1004D0001BB300F5EA6205235D1FADB280F84753F8
:1004E0002D0A80F8485390F83803451E6842684149
:1004F0000090304605F076F9204603B0F0BD0024A8
:10050000B6E70024CBE790F839331BB100F24B5625
:100510000521DBE700F24656FAE700F5AA624FF440
:100520000073D9E730B4BDF80840BDF80C50CDE9F0
:10053000024530BCFFF76CBFF7B5071D05463846CE
:1005400000F0C5F9002840D1284600F047FC08B16A
:1005500004F0AAFA384600F005FA0646A8BB384669
:1005600000F04CFBB0F5FE7F044600D3FEE70146E9
:1005700005F24B32384600F02AFA844200D0FEE7FA
:10058000230A611D85F84A3389B2012385F838337F
:10059000009385F84943A5F844133346324605F2E3
:1005A000463005F01FF9052809D040B105F54F7018
:1005B00085F8386303B0BDE8F04002F06FBA384602
:1005C00003B0BDE8F04000F0D2BA03B0F0BD90F83F
:1005D000383303F0FF0223B1022A04D1002380F84C
:1005E0003833FFF7A9BF704708B500F0F1FBBDE84D
:1005F0000840FFF7ECBF13B590F8533590F8542539
:10060000044643EA022200F2555101F035F9002375
:1006100084F8393394F83823012A0FD0FB2284F868
:100620004723012284F84823009304F5AA624FF47B
:100630000073052104F2465005F0D4F802B010BD55
:1006400090F83833022B10B5044603D100F54F70F3
:1006500002F024FA94F8393323B12046BDE8104063
:10066000FFF7C9BF10BDFFF7EBBF10B5036803620A
:100670005A1E11468B4202D904892144FAE741628D
:100680000221017700210163A1F58031C0E90A331D
:10069000C0E90D13934202D901890A44FAE7C0E97F
:1006A0000F23C0E9113310BD10B5002301601144C0
:1006B000C0E90333C0E9053341600281FFF7D5FF8C
:1006C00010BDC0E903127047C0E905127047012B45
:1006D00009D0022B0ED073B9114442688A420AD85D
:1006E0000389C91AFAE7891A02688A4203D9038979
:1006F0001944FAE7FEE708467047012B0DD0022B9C
:1007000014D0A3B98A4202D3521A90B270474368F8
:100710000068591A121A0A44F7E78A4201D88A1A5D
:10072000F3E7436800689A1A091AF4E7FEE7002223
:10073000EBE710B5144612120A700122FFF7C7FF4B
:10074000047010BD10B5134601220C78FFF7BFFFEF
:1007500000782402204480B210BD73B5037FC26AC2
:1007600001930E46816A00910446FFF7C6FF0128F7
:100770000099054613D9019B20461A46FFF7E2FF70
:10078000023DC5F30D0535432843019B009982B214
:100790002046FFF7CEFFE36AA36202B070BDE162BC
:1007A000FBE72DE9F3411F46037F022B04460D466C
:1007B000164621D0826A4968914221D1C26A0193CA
:1007C0000091FFF79AFF2D68019B009980462A4609
:1007D0002046FFF792FF3844404511DC3744BE42C3
:1007E00010D016F8013B2B702946237F01222046AA
:1007F000FFF76DFF0546F2E70D2002B0BDE8F0817E
:100800000720FAE70020F8E7037F022BF7B504463C
:100810000D461CD0826A4968914218D1C76A00937C
:100820003A460191FFF769FF2D68009B0199064642
:100830002A462046FFF761FF864208D9009B3A46C8
:100840002946204603B0BDE8F040FFF756BF002020
:1008500003B0F0BD037F022B73B504460D4616D0DE
:10086000826A4968914214D1C26A01930091FFF7EC
:1008700044FF2D68019B009906462A462046FFF753
:100880003CFF864205D9E562002002B070BD0D2014
:10089000FBE70720F9E738B5037F022B044612D0A7
:1008A0000021FFF75AFF227FA06A04EB8203196A36
:1008B00021631862E56815B120692346A847022321
:1008C0002377002038BD0D20FCE7006B7047C26B1A
:1008D000436A9A4205D1836B006A1B1A58425841F9
:1008E00070470020704790F8353033B9C36B426AC7
:1008F0009B1A18BF012380F8343070472DE9F84364
:1009000090F8348000EB88060446376A656C2564ED
:10091000BD4222D0424629462046FFF713FF03047A
:1009200002D5B36B9D4218D1C0F30D00821C434623
:1009300029462046FFF7CBFE4346814660640222EB
:1009400029462046FFF7C3FE8145A064DED001237F
:1009500084F835300020BDE8F883032384F835306F
:100960001720F8E708B50146FFF7B1FF68B9084658
:10097000FFF7B9FF91F834300E3351F82330C1E955
:100980001033BDE80840FFF7B9BF172008BD90F845
:10099000350003281ABFB0FA80F0400901207047E3
:1009A00090F83520012A38B504460ED1816C90F8B4
:1009B00034300D78FFF78BFE636CA064984202D14F
:1009C0002046FFF79BFF284638BD0025FBE7F8B51A
:1009D00005460F4616460024BC42A3B209D028465D
:1009E000FFF7D5FF28B92846FFF7DAFF3055013465
:1009F000F2E71846F8BDD0E90E23416A99420CD1BE
:100A0000017F012909D00168531E994202D9028948
:100A10001344FAE74362C3637047016A91420AD103
:100A2000027F42B141680133994202D802899B1A80
:100A3000FAE7036283637047037F022B06D0083313
:100A400050F82330C0E90A3302230377FFF7D3BFFE
:100A5000F8B5047F022C05460E4600D1FEE723467A
:100A6000C76AB4FA84F46409012239460834FFF7EE
:100A70002EFE55F82430834203D03E70E8620020F9
:100A8000F8BD2846FFF7D8FF0320F9E7D0E90A238D
:100A90009A4270B505461BD1037F0833002150F8F8
:100AA0002360B2420CBF4FF400460026FFF7D0FF90
:100AB000044658B901462846FFF7CAFF044628B93C
:100AC0002B7FA96A32462846FFF733FE204670BDC9
:100AD0000024FBE738B5037F022B04460D4607D000
:100AE000FFF7D4FF18B9E36A2B60A36A6B6038BDC7
:100AF0000D20FCE713B5037F0191022B044609D0BA
:100B0000FFF7C4FF38B90199204602B0BDE8104094
:100B1000FFF79EBF0D2002B010BDF8B5037F022B7A
:100B200007460D46164610D0FFF7B0FF044650B9F1
:100B30002E44B54207D015F8011B3846FFF788FF51
:100B40000028F6D004462046F8BD0D24FBE738B552
:100B50000D460446FFF770FF0DB1012D00D125773A
:100B6000237F083354F82330C4E90A3338BD2DE914
:100B7000F0470446FFF7ABFE00283BD12046FFF7C5
:100B8000B2FE94F834A004EB8A080B26D8F838702B
:100B9000D8F820903D46A94516D052462946204611
:100BA000FFF7D0FD030401D5BD420DD1C0F30D0008
:100BB000821C294653462046FFF789FD013E16F068
:100BC000FF060546E7D1FEE7C8F838502046FFF794
:100BD00012FF656900264FF6FF7384F83560E386DF
:100BE00055B1A06994F8342023463946A8473046C9
:100BF000BDE8F0871720FBE72846F9E72DE9F04725
:100C0000C48E4FF6FF739C4205462FD1FFF75FFE5F
:100C1000044670BB2846FFF766FE95F834A005EB46
:100C20008A030B27D3F83880D3F820904646B14585
:100C300018D0524631462846FFF784FD030401D5FB
:100C400046450FD1C0F30D000444821C3146534683
:100C50002846FFF73CFD013F17F0FF07A4B2064608
:100C6000E5D1FEE795F8353003B1EC862046BDE8C6
:100C7000F0870024FAE7182826D8DFE800F0280DCE
:100C80000F112513151725252525191B1D1F252592
:100C90002525252525232100012070470E2070479A
:100CA0000B2070470C2070470920704703207047C5
:100CB00002207047042070471120704712207047AF
:100CC000132070471420704700F5804070470020C3
:100CD000704700002DE9F0410646044646F8041B23
:100CE0004FF400720F4600F1D1013046FFF7DCFCF3
:100CF0000025266504F1540304F17402C3E900558C
:100D000008339A42FAD1C4E91E55A4F8745004F18C
:100D1000800001F02FFA294A84F89850C823C4E9CA
:100D2000282304F1AC084FF6FF73254AA4F8A83035
:100D300039462346C4F89C50404601F09AFE0421EF
:100D400084F8C8101F49C4F8B45000230022096871
:100D5000C4F8CC10C4E92E23C4E93023C4E9CC2361
:100D6000236884F8D050FF21C4E9C455C4E9C755AD
:100D7000C4E9C95584F8D152A4F8D252A4F8181382
:100D800084F82C5303B9FEE70F4B10491C60224630
:100D90003046FFF799FC3C22002104F535700AF03B
:100DA00063FC7722002104F1B80001F03BFC4046CF
:100DB00001F074FE2046BDE8F08100BF00F8FF0797
:100DC000BD10000008DD000088080020231100008D
:100DD000014B1868704700BF8808002090F8C830A1
:100DE000042B1ABF90F8980080F001000020704793
:100DF000013804289ABF024B185C0020704700BFDE
:100E00000CDD0000F8B511F00F0601F00F0708D156
:100E1000022A04D11A463146B83001F003FC3046AC
:100E2000F8BD90F8D35290F8D2126C1A0E2C06DD51
:100E30000E220021B83001F0F5FB0326EFE790F811
:100E4000D142B44217D08D4215D90C460E2C02D98E
:100E50000F3CE4B2FAE7B43400EB840494F804C025
:100E60001CF0100F0DD00CF00F0EB64509D16FF32A
:100E7000041C84F804C02C460E2C05D90F3CE4B2A7
:100E8000FAE70131C9B2DEE702F0030247F01001D0
:100E900041EA4211B434084A00EB840402EAC31365
:100EA0001943636803F0004319430135616000266C
:100EB00080F8D352B3E700BF80FFFF7F13460222C2
:100EC000FFF7A0BF38B511F0300F00F1500408BF94
:100ED000C0F89C20154600230622204601F06FFB37
:100EE00048B92946204601F0B2FA20B92046BDE8AB
:100EF000384001F047BB38BD2DE9F74304460D46A5
:100F00006846114691461E4601F004F9DDE9007875
:100F10002FB918F0010F02D1E6B932461BE004F1F7
:100F200050064B4606222946304601F048FBC8B918
:100F30004FEA680318F0010F18BFE35804EB68008C
:100F400018BFDF59B84768B9304603B0BDE8F04371
:100F500001F018BB0D222946204603B0BDE8F0433E
:100F6000FFF7B0BF03B0BDE8F08370B504460026BC
:100F700094F8D25294F8D332AB4237D0B43504EB64
:100F800085021379D90616D404EB85052B796FF306
:100F900004132B7194F8D2320133DBB20F2B84F897
:100FA000D232E5D194F8D33284F8D2620E2B1AD91A
:100FB0000F3BDBB2FAE703F00F01526803F0600366
:100FC000402B41F08001C2F3D71205D12046FFF734
:100FD00079FF0028D8D070BDB3FA83F35B092046AF
:100FE000FFF78AFFF5E784F8D332C1E70020F2E784
:100FF0002DE9F74FD0E92E23134304464BD0B830E8
:1010000001F00DFB2C4F804600254FF0010AEBB29A
:10101000434540D2D4E92E30C5F12001A5F120028C
:10102000EB4000FA01F10B4320FA02F2134313F0F4
:10103000010FC5F12009A5F1200602D10C370135B9
:10104000E5E73A686ABBD7F804B0BBF1770F06D181
:10105000206803F00FFD082898BF00F1700B5A4676
:1010600080212046FFF72EFFA8B9D4E92E120AFAF4
:1010700006F62AFA09F90AFA05F321EA030346EA11
:101080000906009322EA06030193DDE90023C4E97F
:101090002E231343D2D1012384F82C3303B0BDE8AF
:1010A000F08F94F82C33002BDFD0012380212046D1
:1010B000FFF722FFD8E700BFF0DF0000014B186800
:1010C000FFF796BF8808002090F8983010B50446C6
:1010D00033B1D0F8CC308B4204BF002380F8983075
:1010E0002046FFF742FFD8B994F8D01099B10123F8
:1010F0000C222046FFF700FF90B994F8C83084F81E
:10110000D000042B07D0201DFFF7DFFB0123C4F81C
:10111000CC0084F898302046BDE81040FFF768BF47
:1011200010BDFFF7D1BFF8B500F1500504462846C1
:10113000069EBDF81C7001F042FA50B9206D3A4687
:101140003146FFF7EAFC20B92846BDE8F84001F037
:1011500019BAF8BD2DE9F04F042B87B004460D46AF
:10116000174602D0052B18D0FEE7114604A800F060
:10117000E9FFDDE904864FF0070906F0010BB8F13D
:10118000000F13D1BBF1000F10D10D2229462046CC
:10119000FFF794FE07B0BDE8F08F114604A800F0F9
:1011A000DDFF4FF00809DDE90486E6E704F1800A77
:1011B000504601F0DCF80DF10A0203A9504601F097
:1011C000B6F8504601F0DAF8002384F8143304EB43
:1011D00066007310BBF1000F02D0E35853F808808B
:1011E000C047012384F81433064618B1FFF743FDC6
:1011F0000246CBE7BDF80A300193039B00934A46B1
:101200003B4629462046FFF78EFF0028C2D03246D3
:10121000BCE708B50022FFF751FE08BD38B504460B
:10122000006801F0CAFA722280212046FFF74AFEC8
:10123000054648B104F1B8007722002101F0F2F927
:1012400004F1AC0001F02AFC024B00221A6028468F
:1012500038BD00BF8808002030B5C3B004460D4635
:10126000002301A98030019301F043F840B1FFF75A
:1012700002FD294602462046FFF724FE43B030BD5A
:101280008DF8070154F8500B0199FF2302AA01F0D1
:101290008BFA4FF46F5306222946204601F08FF94E
:1012A0000028EBD102A9204601F00EF90028E5D173
:1012B000204601F067F9E1E710B50446006801F047
:1012C00086FA0146206DBDE81040FFF713BC10B54B
:1012D0000446006801F012FB0146206DBDE8104095
:1012E000FFF708BC37B50023054601A980300193FC
:1012F00000F0DAFF044688B99DF80410286801F070
:10130000FFFA044650B9286801F061FA30B195F847
:1013100012331BB1286801F07FFA0446204603B05F
:1013200030BD10B50446006801F05AFA002818BF15
:101330000221206D08BF0021BDE81040FFF7DABB95
:1013400013B5002304460DF1070180308DF80730F6
:1013500000F028FF58B99DF8073023B1013B012B5D
:1013600007D9072003E00146206801F03FFA02B0E8
:1013700010BD0121F8E710B5044654F8500B01F0F8
:10138000C2FA01462046BDE8104001F004B813B58A
:1013900004460DF10601803000F032FF20B9BDF89F
:1013A0000610206801F0B1FA02B010BD10B5044675
:1013B000006801F0ADFA08220146206DBDE810403A
:1013C000FFF7ABBB13B50822044601A9803000F03B
:1013D00082FF18B90199206801F09CFA02B010BD93
:1013E00010B5044654F8500B01F097FA0146204618
:1013F000BDE8104000F0CFBF90F81213006DFFF76A
:1014000079BB37B5002305460DF1070180308DF813
:10141000073000F0D7FE044670B9286801F0D7F90C
:1014200030B19DF8073028684BB101F0F5F904465A
:101430009DF8073085F81233204603B030BD01F027
:10144000E1F9F4E7F8B505460E460024012707FA4E
:1014500004F33342E1B204D10134202CF7D100204F
:1014600004E0286DFFF746FB0028F5D0F8BD002307
:10147000F7B505460C460B6000F180070126B5F86C
:101480008620B5F888309A420FD00DF10701384612
:1014900000F088FE50B99DF807301F2B08D822684D
:1014A00006FA03F313432360E9E7002003B0F0BD1D
:1014B0000720FBE7D0F8A010FFF7C4BF13B5002347
:1014C00001A904460193FFF7D2FF10B9019BC4F8AC
:1014D000A03002B010BDB0F8A410503000F05BBFD7
:1014E00000F1A401803000F08BBE10B50446006806
:1014F00001F06DF9014628B194F9183301330CBF9E
:1015000000210221206DBDE81040FFF7F3BA000072
:1015100037B5002305460DF1070180308DF80730FF
:1015200000F040FE044608BB9DF80730F3B1022BE3
:101530001FD1286801F04BF9C0B195F91833013378
:1015400019D1D5F8A030C3B15A1E1A4015D15B0885
:10155000D1B2104602F10102F9D185F81803084B07
:10156000B5F8A420286801F062F90446204603B0CB
:1015700030BD0C24FAE70D24F8E70724F6E700BF96
:101580005D1D000013B5044601A9803000F08CFEFB
:1015900028B90199012204F1B80001F079F802B0EC
:1015A00010BD13B5044601A9803000F07DFE28B9B6
:1015B0000246019904F1B80001F06AF802B010BDCA
:1015C000D0F89C10503000F042BF10B500F150042C
:1015D0000421204600F03BFF28B920460321BDE846
:1015E000104000F034BF10BD0321503000F02FBF79
:1015F0000021503000F02BBF10B500F15004052140
:10160000204600F024FFA8B90C21204600F01FFF5F
:1016100080B91821204600F01AFF58B9222120462F
:1016200000F015FF30B9204640F20121BDE810401E
:1016300000F00DBF10BD10B5044601F0C1F8014621
:1016400004F15000BDE8104000F03EBF006D0121E4
:10165000FFF750BA006D0021FFF74CBA006D04216E
:10166000FFF748BA0C20704713B504466946006876
:1016700001F055F9206D08226946FFF74EFA02B0D5
:1016800010BD0221503000F0B8BF90F8C810006DB6
:10169000FFF730BA73B504460E4680300DF10701EE
:1016A00000F080FD80BB9DF80730022B23D002D9CB
:1016B000DA1E012A21D884F8C830002384F8D030FB
:1016C0000C22012331462046FFF716FC94F8C8305F
:1016D000042B054608D090B9201DFFF7F6F8C4F892
:1016E000CC00012384F8983015B184F8D06000252F
:1016F000284602B070BD0123DDE70323DBE7074B7B
:101700001B68C4F8CC30ECE7FFF7B5FA3146024667
:101710002046FFF7D7FB0546EAE700BF08DD0000DB
:10172000712A10B51C460CD0B2F56F5F06D00C2A9A
:101730000AD1FFF7AFFF2070012010BDFFF78CFD2D
:10174000F9E700F043FCF6E70020F6E7F0B585B0D6
:1017500004460D4602A81146002716468DF807706C
:1017600000F0E4FCDDE9023000F0010273B96AB96F
:101770000DF10703324629462046FFF7D1FFF8B99D
:101780000D2229462046FFF799FB17E0411084F807
:10179000147304EB60000AB16258D35898470122D1
:1017A0008DF8070084F8142318B1FFF764FA024695
:1017B000E7E7334629462046FFF724FB8DF807006C
:1017C0009DF8070005B0F0BD73B5002304460D4633
:1017D000803001A91646019300F066FD024640B133
:1017E000FFF749FA294602462046FFF767FB024603
:1017F00004E0032E15D004D8022E0CD0104602B0FF
:1018000070BD331F012BF9D8019A33462946204673
:10181000FFF7A0FCEBE7019B29462046FFF7F2FA11
:10182000E5E7019A29462046FFF790FFDFE737B545
:1018300004460D46803001A900F036FD80B9019ABA
:10184000012A0FD008D9931E032B10D9052229464F
:101850002046FFF733FB03E029462046FFF7D9FC7B
:1018600003B030BD29462046FFF7D8FCF8E72946EB
:101870002046FFF7A9FFF3E730B5012385B080F8D4
:10188000143304460025803001908DF80F5000F08D
:101890007EFC0423019884F8C83084F898500DF138
:1018A0000F0100F07FFC90B99DF90F309DF80F10EB
:1018B000AB420CDAD4F8203311F0300F03F10103FE
:1018C000C4F8203308D006222046FFF7FBFA002395
:1018D00084F8143305B030BD2046FFF7A8FF38B1B7
:1018E0009DF80F10FFF7C7F902462046FFF7E6FA0A
:1018F00094F8D32294F8D2329A4202D02046FFF7CD
:1019000034FB9DF80F3094F8D12203F00F0332B16D
:101910009A421EBFD4F824230132C4F824230F2B8B
:1019200014BF0133012384F8D132D0E710B5044647
:10193000006803F0F9F9C1B2206DBDE81040FFF76F
:10194000D9B810B50446006803F06CFCC1B2206D34
:10195000BDE81040FFF7CEB810B50446006800F0AF
:10196000CDFF0146B0B10A280CD84FF4FA604143CC
:1019700001F55C2101F5346104F15000BDE810402F
:1019800000F018BD192807D8044841F2883303FB3A
:101990000101F1E70249EFE70021EDE7B0DB2300A9
:1019A000CC3F0D0013B504460DF10701006803F0AC
:1019B0003DFA30B99DF80710206DFFF79BF802B093
:1019C00010BDFFF758F9014604F1500000F015FE74
:1019D000F5E713B5002304460DF1070180308DF8BB
:1019E000073000F001FC20B99DF90710206803F0D2
:1019F0002CFA02B010BD13B504460DF107010068C2
:101A000003F000FA30B99DF80710206DFFF772F867
:101A100002B010BDFFF72FF9014604F1500000F0AD
:101A2000ECFDF5E713B5002304460DF10701803006
:101A30008DF8073000F0D8FB20B99DF90710206819
:101A400003F0EAF902B010BDFEE7FEE710B5044668
:101A500000F067FFFFF7CCF90146206DBDE81040AC
:101A6000FFF748B8F7B5002300220546CDE900236B
:101A700002F02DFA6946044605F1800000F0ECFB07
:101A800060B9DDE9006723460024A74208BF9E42F3
:101A900006D3F21A67EB0403C5E9CC2303B0F0BD0B
:101AA0000720FBE7D0E9CC23503000F09EBC10B5F6
:101AB0000446006801F0F6FD01462046BDE81040EE
:101AC000FFF7C0BC10B50446006801F0EFFD014609
:101AD0002046BDE81040FFF7B5BCF8B506461746EE
:101AE00000F150050C4649B142B98A880968284678
:101AF00000F0D8FC002875D00120F8BD0021284650
:101B000000F049FC0028F7D1002C6BD12146306D44
:101B1000C9B2FEF7EFFF0028EED1306D8021FEF74D
:101B2000E9FF0028E8D1002C5FD0E37D13F0010F1E
:101B30000CBF002110219B0701D541F02001284650
:101B400000F029FC0028D7D1284600F0D7FC014638
:101B50000028D1D104B1A179306DFEF7CBFF014649
:101B60000028C9D104B1A17D306DFEF7C3FF002864
:101B7000C2D1002C3BD0D4E90223284600F035FC2A
:101B80000028B9D1284600F0D8FC0028B4D1284656
:101B900000F0B4FC0028AFD13946284600F057FCCD
:101BA0000028A9D1284600F0C8FC0028A4D1284666
:101BB00000F0A4FC014600289ED104B1217D306DC7
:101BC000FEF798FF002897D1A4B12169284600F0BC
:101BD000F1FB002890D1284600F0AFFC003818BF78
:101BE00001208AE794F9151091E72146A7E7002222
:101BF0000023C2E72146E9E7F8B500F150070446A3
:101C00000D461646712306228021384600F0D7FC87
:101C100050B9324629462046FFF75FFF20B93846C3
:101C2000BDE8F84000F0AEBCF8BD0000014B1868FC
:101C3000FFF7E2BF880800202DE9F7430E4690F831
:101C40001713044615461F4681B341F0800122B3A5
:101C5000136893F80090C9F30019002304F15008A9
:101C600084F817330622404600F0A9FCF0B9384644
:101C7000FFF701F80146404600F0E9FBB0B9206DDE
:101C80004946FEF737FF88B94FB133681B781B0709
:101C90000FD4404600F076FC08E09146DDE73A4676
:101CA00029462046FFF719FF0028EED003B0BDE813
:101CB000F0830DF10301304601F04BF90028F5D116
:101CC00001A9304601F020F90028EFD19DF803105A
:101CD000206DFEF70FFF0028E8D10199404600F083
:101CE00069FB0028D5D0E1E701480068FFF7A4BFF1
:101CF00088080020F8B5FF23054690F9187380F88E
:101D00001833044655F8500B0E4600F085FD392374
:101D100006228021284600F052FCF0B9206DF9B26D
:101D2000FEF7E8FEC8B9206DF1B2FEF7E3FEA0B9F8
:101D3000284600F027FC80B980213023062228465F
:101D400000F03DFC014640B9206DFEF7D3FE20B9FE
:101D50002846BDE8F84000F015BCF8BD014B1868F6
:101D6000FFF7C8BF8808002010B5044654F8500B90
:101D700000F05AFD01462046BDE8104000F067BB68
:101D800090F81913006DFEF7B5BE10B5044654F86F
:101D9000500B00F0B1FD02460B462046BDE8104056
:101DA00000F023BB10B500F219310446803000F07A
:101DB00009FA30B994F819132068BDE8104000F012
:101DC00039BD10BD73B50446006800F077FD0546C7
:101DD000B8B904F18006B4F88830B4F886209B1AAC
:101DE0009BB2012B0DD90DF10601304600F008FA27
:101DF00030B9BDF80610206800F028FD0028EAD0B0
:101E00000546284602B070BD73B50446006800F070
:101E100061FD0546B0B904F18006B4F88830B4F825
:101E200086209B1A9BB2072B0CD9082201A93046A9
:101E300000F051FA28B90199206800F011FD00283E
:101E4000EBD00546284602B070BD13B504460DF12F
:101E50000601803000F0D4F920B9BDF806102068E2
:101E600000F010FD02B010BD13B50822044601A910
:101E7000803000F030FA18B90199206800F00CFDAC
:101E800002B010BD13B504460DF10601803000F01C
:101E9000B7F920B9BDF80610206800F0D7FC02B0F1
:101EA00010BD13B500230446082201A98030019318
:101EB00000F011FA18B90199206800F0D1FC02B0C5
:101EC00010BD000013B500230DF10701044680305A
:101ED0008DF8073000F076F9014630B99DF80730EB
:101EE00020682BB900F070FC0146084602B010BD16
:101EF0000049F7E72D1C000013B504460DF106015B
:101F0000803000F07DF920B9BDF80610206800F09F
:101F100063FC02B010BD7FB500F180060C460DF1E8
:101F20000A0203A9304600F00DFA0546002847D101
:101F3000BDF80A207F2A46D82546039955F8060B96
:101F4000A28009F08FFA2946304600F02BF90546A9
:101F5000B0BB4FF44173A382A37D23F00B0343F086
:101F60000203A37504F11401304600F01BF938BBDD
:101F700004F11501304600F015F908BB0DF1070119
:101F8000304600F01FF9D8B902A9304600F01AF91E
:101F9000B0B90DF10901304600F014F980B99DF88F
:101FA00007209DF8083043EA42039DF8092043EAE0
:101FB000C203A27D03F00B0322F00B021343A375AF
:101FC000284604B070BD0625FAE7000038B504467F
:101FD00000680D4600F0FBFBE8B1206800F01FFC34
:101FE0000146D0B12046FFF796FF034648B905F0F9
:101FF0000F0384F817330A49206800F012FC0346E7
:1020000068B11846FEF737FE294602462046BDE86D
:102010003840FEF757BF0D23F3E70323F1E738BD40
:10202000E91C000030B500F1800487B0054602A924
:10203000204600F0B7F820B99DF80830082B02D0F0
:10204000072007B030BD0DF10901204600F0AAF8C5
:102050000028F6D10DF10A0203A9204600F072F91A
:102060000028EED1BDF80A30102BE9D10DF10A029B
:1020700004A9204600F066F90028E2D1BDF80A3034
:10208000102BDDD10DF10A0205A9204600F05AF906
:102090000028D6D1BDF80A30102BD1D1059B019371
:1020A000049B00939DF80920039B9DF80810286865
:1020B00000F01CFCC5E713B5044601A9803000F010
:1020C000B3F818B90199206800F013FC02B010BDF4
:1020D000F0B5013A044600260C20B2420AD99519FF
:1020E0006D0800FB05F7CF599F4201D26E1CF4E743
:1020F0002A46F2E700FB06F288188A5893420BBF83
:10210000D0E901010023C4E90001C4E900332046FD
:10211000F0BD000010B50B46044603492422FFF72A
:10212000D7FF204610BD00BF14DD000010B50B46E0
:10213000044603491322FFF7CBFF204610BD00BF22
:10214000C4DE000010B50B46044603490322FFF726
:10215000BFFF204610BD00BFA8DF000010B50B4632
:10216000044603490322FFF7B3FF204610BD00BF1A
:10217000CCDF00000022C0E90022C0E90222704743
:10218000838803810022C280827283817047002984
:1021900008BF002210B501608280FFF7F1FF83883D
:1021A000838110BDC388028910B55C1C94429FBF17
:1021B0000268D35C0B70C3889BBF0133C3800620C9
:1021C000002010BD13B50C460DF10701FFF7EAFF23
:1021D00018B99DF8073013B9207002B010BD012B5B
:1021E0000CBF23700620F8E713B50C460DF107016C
:1021F000FFF7D8FF10B99DF80730237002B010BD6B
:10220000C288038930B5941C9C420BD80468A3187B
:102210005D78A35C43EA05230B80C3880233C38047
:10222000002030BD0620FCE7F0B5C4880389251DD9
:102230009D420FD806683219345D93785778D2786A
:102240001B0443EA0723234343EA02630B60C58070
:102250000020F0BD0620FCE7B0F806C00389F0B509
:102260000CF108049C421DD8D0F800E00EEB0C05E0
:10227000AA786E782B79120442EA06221EF80C60C6
:102280003243EE7842EA06626E7943EA0623AE797B
:1022900043EA0643EE7943EA0663C1E90023C480BA
:1022A0000020F0BD0620FCE737B5C38804460D4684
:1022B00001890068C91A184401AA00F031FA0028FF
:1022C000C1BFE388C018019BE080D2BF0620002078
:1022D0002B6003B030BD10B5C488038922449A42F4
:1022E000DDBF03681B190B600620DCBFC280002025
:1022F00010BDC28838B503890D46511C9942044669
:1023000001D9062038BD00689B1A99B2104400F02C
:10231000A5FBE3882289D21A92B29042F1D22268B8
:102320001A44013318442A60E0800020EAE710B420
:102330000389C4881B1B9BB213805DF8044B1A46AB
:10234000FFF7C9BF73B50E460DF1060105461446E9
:10235000FFF756FF48B9BDF8062031462846FFF77B
:10236000BAFF10B9BDF80630238002B070BDC38833
:1023700083810389C381837AC3727047838982888A
:102380009A4281BFC380C3890381C37A86BF8372A7
:1023900000200D20704738B504460D460068C9B2CC
:1023A000FEF7A8FB28B92068290ABDE83840FEF7E7
:1023B000A1BB38BD38B504460D460068C9B2FEF76A
:1023C00099FB88B92068C5F30721FEF793FB58B93C
:1023D0002068C5F30741FEF78DFB28B92068290E58
:1023E000BDE83840FEF786BB38BD70B5D1B20446B3
:1023F000006816461D46FEF77DFB38BB2068C6F315
:102400000721FEF777FB08BB2068C6F30741FEF7FC
:1024100071FBD8B92068310EFEF76CFBB0B92068AB
:10242000E9B2FEF767FB88B92068C5F30721FEF71C
:1024300061FB58B92068C5F30741FEF75BFB28B97B
:102440002068290EBDE87040FEF754BB70BD13B57F
:102450000A4604460621684600F08FF9694682B2B2
:102460002068FEF75AFB02B010BD70B504460D4659
:1024700011F00F0118BF002300680EBF84F824106C
:10248000012184F824301646FEF761FB20682946B6
:10249000FEF730FB28B931462046BDE87040FFF713
:1024A000D6BF70BD37B50D46114604460192FFF701
:1024B00072FF38B9019A2068294603B0BDE8304060
:1024C000FEF72BBB03B030BD13B50446084601919F
:1024D0000AF056F84FF6FF72824228BF0246019971
:1024E000206892B2FEF719FB014628B9206802B0B5
:1024F000BDE81040FEF7FEBA02B010BD10B590F86E
:1025000024100329044616D800EBC10104310068E9
:10251000FEF7E0FA70B901462068FEF7EBFA48B919
:1025200001462068FEF7E6FA20B994F8243001331A
:1025300084F8243010BD0D20FCE773B590F824100A
:10254000044611B90D2002B070BD0139C9B2082589
:10255000042680F8241015FB016101440068FEF791
:1025600053F90128EED994F82410023815FB0161C3
:10257000ADF80400022320680DEB06022144FEF7AB
:1025800010F9E0E710B5044694F824302BB120464A
:10259000FFF7D3FF0028F7D010BD2068BDE810403A
:1025A000FEF779B910B500F1280104460068FEF77E
:1025B00091FA18B994F8243084F8253010BD38B554
:1025C00004461D46FFF751FF48B92046FFF7EAFFD2
:1025D00028B929462046BDE83840FFF738BF38BD46
:1025E00010B500F1280104460068FEF733F918B968
:1025F00094F8253084F8243010BD38B504460D46D3
:10260000FFF7EEFF50B901462046FFF720FF28B93B
:1026100029462046BDE83840FFF719BF38BD1F20C6
:102620007047000030B5194C002325688D4225D134
:102630006568954222D1D0E90225C3F1200405FA4C
:1026400004F4A3F12001DA40224325FA01F10A4300
:1026500012F0010FC3F12004A3F120020DD10121DA
:1026600001FA02F221FA04F4224301FA03F3D0E959
:1026700000140B432243C0E9003230BD0133DBB20A
:102680001F2B04F10C04D0D1F7E700BFF0DF0000EE
:102690002DE9F04F0023214C93461F46012694F864
:1026A00014C05D1CBCF1000F26D0E2688A4223D121
:1026B0001F3BC5F1200E26FA0EFE06FA03F343EA8D
:1026C0000E0306FA05FAD0E902796FEA0A086FEA02
:1026D000030EBBF1000F18D04AEA070743EA0903CB
:1026E000C0E90273D0E9003703EA080307EA0E07DE
:1026F000C0E9003731B967461E2D2B4604F10C04A2
:10270000CDD14FB10020BDE8F08F08EA07070EEAEF
:102710000903C0E90273EDE70720F4E7F0DF0000EA
:102720000023F0B5054618468842C0EBC0070DD01F
:1027300005280BD02E5C06F07F04BC4023433406F2
:1027400000F10100F0D402B11360F0BD4FF0FF3092
:10275000FBE77F280BD9B0F5804F0AD3B0F5001FF7
:1027600009D3B0F1805F34BF0420052070470120F9
:102770007047022070470320704738B50446104662
:10278000FFF7E7FF81420CDA38BD63F07F03635443
:10279000D20901318D42D3B2F7D103F07F036355E3
:1027A000F2E70021451EF5E78C3000F05FBA00F03B
:1027B000DFB80120704700F0F1B800F0EDB800007C
:1027C0000048704764E10000143000F099BA806955
:1027D000003818BF01207047143000F0BDBA000067
:1027E000014802F0B3BA00BF9008002008B5836921
:1027F00023B1034802F0ACFA002008BD0D20FCE72D
:1028000090080020836913B1024802F043BA0D20FA
:10281000704700BF90080020143000F0A7BA806B0A
:102820007047143000F0B8BA243000F00FBC1430F8
:1028300000F0CCBA08B5836923B1034802F08BFAE3
:10284000002008BD0D20FCE790080020836913B12B
:10285000024802F083BA0D20704700BF90080020A4
:10286000836907B553B16846012200F09AFB04481A
:10287000694602F081FA03B05DF804FB0D20FAE727
:1028800090080020836913B1024802F07FBA0D203E
:10289000704700BF90080020836907B553B16846B0
:1028A000012200F07EFB0448694602F07DFA03B085
:1028B0005DF804FB0D20FAE79008002008B5836955
:1028C00023B1034802F07AFA002008BD0D20FCE78E
:1028D0009008002008B5836923B1034802F071FA1B
:1028E000002008BD0D20FCE790080020143000F007
:1028F00089BA143000F095BA01F0F2BB007D704740
:10290000143000F018BAC08A7047143000F006BACC
:102910002A307047143000F015BA008D704702F06D
:1029200003B90120704710B50446FFF742FF20B1FC
:10293000201DBDE8104000F0BBB810BD38B50446FE
:102940000025043000F099F8C4E9025504F11000A4
:1029500000F04AF8214604F1140000F0C1F92146C4
:1029600004F18C0000F0C1F884F88D50204638BD89
:1029700010B5064C94F88D302BB92046FFF7DEFFDA
:10298000012384F88D30014810BD00BF900800205D
:10299000004870479008002002F04CB890F88D3045
:1029A00010B504465BB1002380F88D30243000F070
:1029B00087FB04F11000BDE8104000F001B810BD25
:1029C000034A138803B9FEE7013B1380704700BF39
:1029D0002009002031B16FF00043994208BF012166
:1029E000016070470121FBE737B50D4C23884FF696
:1029F000FF729342054600D1FEE753B904210DEB67
:102A0000010001F09BFF00B1FEE701990548FFF7C7
:102A1000E1FF238828460133238003B030BD00BF87
:102A20002009002024090020026848F24E33A2FB4E
:102A3000032313EB520244BF22F000420132026032
:102A400010467047034B1B8803B9FEE70248FFF7A7
:102A5000EBBF00BF200900202409002010B500238F
:102A6000421E98B2814203D90133D45C002CF8D1C4
:102A700010BD026000224260704700220260704771
:102A8000036823B9016004484960FDF735BC5A6802
:102A90004A60596001607047900800204368014611
:102AA00013B90248FFF7ECBF704700BF940800203D
:102AB00038B500250468056054B1606884421CBFC5
:102AC000436863600368456008BF00249847F3E7E4
:102AD00038BD08B5012001F0F9FD002008BD08B59A
:102AE000002001F0F3FD002008BD704701F01ABE80
:102AF00003460846114613B1014A09F021BB70474D
:102B0000AFE1000013B500220C4601A909F04EFE0A
:102B1000019B20601878002818BF062002B010BD65
:102B2000012937B51D4608D007242046069A2946B4
:102B3000FFF7DEFF204603B030BD106801A9FFF7A4
:102B4000E1FF04460028F0D10198A0F10B030F2B00
:102B5000EAD8C0B201F0DAFDE7E7012937B51D4632
:102B600011D1106801A9FFF7CDFF044618B99DF9EE
:102B7000040001F0D1FD2046069A2946FFF7B8FF70
:102B8000204603B030BD0724F5E700002DE9F74FDC
:102B9000DDF83080814615461F460C4651B12C4960
:102BA000106809F021FBB0B9013C14F0FF0405F1F5
:102BB000040510D101F0A4FD2649274B274A00281F
:102BC00018BF0B464146384609F0BAFA002630468F
:102BD00003B0BDE8F08F00233B70D5F800B0204E65
:102BE0004FF0040A3168584609F0FEFA08BBB36892
:102BF00076685A1009EB6300DB0748BF59F80230CA
:102C000004F1FF3148BF9E59CDF80080012CC9B2B4
:102C10008CBF2A1D00223B46B04723280646D6D14A
:102C2000012CD4D92B680F4A4146384609F088FA5E
:102C3000CDE7BAF1010A06F10C06D3D1CDF8008038
:102C40003B462A462146084801F010FDE5E700BF53
:102C5000D5E10000C4E10000CCE10000D9E10000B2
:102C6000A8E20000F2E1000090080020F0B50E4656
:102C7000E5B007461D464FF48071002330461446E8
:102C80008DF80F30FFF7EAFEFF2819D8314624A847
:102C900009F014FC202304AA0DF10F0124A800F070
:102CA0000BFD03280CD0072810D088B99DF80F1011
:102CB0000095234604AA3846FFF768FF65B0F0BDCB
:102CC000044A2946204609F03BFAF7E7024AF8E7AA
:102CD000024AF6E717E2000039E200006EE2000067
:102CE00010B50B2303704FF6FF7343800023C0E938
:102CF00001330446C360103000F066F9204610BD71
:102D000038B504460D46103019B100F0C3F910B1C2
:102D100038BD00F0D5F965600020F9E738B54368A3
:102D200004460D462BB1103000F094F96580002068
:102D300038BD0D20FCE7436813B1017000207047D7
:102D40000D20704708B5436823B1103000F08EF9AC
:102D5000002008BD0D20FCE708B5436823B1103002
:102D600000F07EF9002008BD0D20FCE743681BB190
:102D700010F8101B00F0B8B90D20704710B444686B
:102D80002CB122B9234603485DF8044B18475DF87F
:102D9000044B70479008002038B5436804460D4640
:102DA0002BB1103000F064FB00B9A56038BD0D20D8
:102DB000FCE7000038B5856804461DB10248A84705
:102DC0000023A36038BD00BF9008002038B51D4621
:102DD000436804462BB1103000F07AFA00B9E56080
:102DE00038BD0D20FCE70000436810B504462BB148
:102DF000C3681BB1024898470023E36010BD00BFC1
:102E00009008002013B544684CB1059C0194049CC3
:102E10000094103000F092FA002002B010BD0D2096
:102E2000FBE708B5436823B1103000F0DBFB00205E
:102E300008BD0D20FCE7036858781B7843EA0020A2
:102E4000704710F440431ABF80F04000C0F3801078
:102E500018467047102804D0182814BF00200820F6
:102E600070470420704708B510F44063014619D03C
:102E7000B3F5406F18D0B3F5006F1CD10722084698
:102E8000FFF7DFFF08B10232D2B201F44041B1F5E1
:102E9000004F0BD0B1F5404F0BD0002918BFFF22D7
:102EA000104608BD0322EAE70D22E8E70232D2B25B
:102EB000F6E70832FBE7FF22F2E708B58388042B28
:102EC00005D9FFF7B8FFBDE80840FFF7CCBFFF20EA
:102ED00008BD8288022A05D903681B781B0701D523
:102EE000FFF7EBBFFF20704738B505460C46FFF7EC
:102EF000F0FFFF281FBF2B681B5C03F01803237033
:102F000014BF0020062038BD38B505460C46FFF733
:102F1000E0FFFF281FBF431C2A68DBB200201ABF56
:102F2000D3582360062038BD38B505460C46FFF758
:102F3000D0FFFF2800D1FEE72A68431C52FA83F035
:102F4000D9B2230A54544370230C240E8370C470E6
:102F500038BD38B505460C46FFF7BBFFFF280246D3
:102F600009D02B68185C00F01800FFF773FF1344BA
:102F700003445B792370002038BD38B505460C4604
:102F8000FFF7A7FFFF28024600D1FEE72B68185C79
:102F900000F01800FFF75EFF134403445C7138BD76
:102FA000704712B1012A05D070470B6803604B6867
:102FB0004360704701F10803013813F8012D00F850
:102FC000012F8B42F9D1704773B51E4E0191044613
:102FD000304601F0B9FE4FF6FE730025A38047F698
:102FE0000173E3812070657065802561304601F0D2
:102FF00097FE0199606104F1180000F001FB23467F
:10300000114A6565C4E9075584F8585043F85C2FA8
:1030100029466366C4F80650C4F80A50102204F129
:10302000240008F021FB2946102204F1340008F0A6
:103030001BFB1022294604F1440008F015FB204632
:1030400002B070BD90080020D5350000007840F037
:1030500004007047014801F077BD00BF90080020D0
:103060008180014800F0EABAA108002007B50A688B
:10307000C0F806204A68C0F80A2001226846FFF717
:1030800090FF0348694600F0D3FA03B05DF804FBF3
:10309000A1080020437810B5044663B9074801F041
:1030A000D9FD50B9054801F0F5FD30B96378012B21
:1030B00001D001236370002010BDFEE790080020BE
:1030C00010B504465C3000F007FC064801F0E2FD54
:1030D00030B9044801F0C8FD10B9637803B16070DD
:1030E00010BD00BF9008002010B50446044801F050
:1030F000DFFD20B96378022B1CBF0223637010BD73
:10310000900800204378032B10B5044623D143696F
:103110001A8A997D003A18BF012262F3410199751C
:103120000278D2060DD504236370E3691BB1226ACD
:103130006069012198476169074800F085FA50B13C
:10314000FEE79979054801F0B3FD00B1FEE7637829
:10315000042BEAD0E7E710BDA1080020900800206A
:103160004378022B1CBF02234370183000F058BA7A
:1031700010B503789B07044600D5FEE7104801F020
:10318000D3FD7F2806D094F90F307F2B01D08342E6
:1031900000DAE07300F09BFE2369C01A002808DA09
:1031A000216E04F15C004FF4FA32BDE8104000F0EB
:1031B0007FBB94F90F102046BDE81040FFF7D0BF49
:1031C0009008002003789B065FBF044B9869B0FA13
:1031D00080F0400948BF0020704700BF90080020E1
:1031E000037813F00C0F01BF034B9869B0FA80F01D
:1031F000400918BF0020704790080020F8B54378B8
:10320000C5788778032B1CBF032343700446FFF760
:10321000E7FF20B92046BDE8F840FFF773BFFFF78E
:1032200011FCA37B0646C3B163690E48997901F08E
:103230003FFD03353D44052D4FF0FF3128BF0525E7
:1032400001FA05F526EA05064FF4A071714304F171
:103250005C00BDE8F84000F031BB024801F01AFD07
:10326000E7E700BF900800200378DB075FBF044B4F
:103270009869B0FA80F0400948BF0020704700BF4D
:103280009008002008B50246FFF7EEFF58B10B6822
:103290001B789B0607D5BDE808404FF47A5102F130
:1032A0005C0000F00BBB08BD007880F00400C0F3A8
:1032B0008000704703789B075FBF044B9869B0FAA2
:1032C00080F0400948BF0020704700BF90080020F0
:1032D000437870B50446164653B3033B022B27D9F7
:1032E00003789B0709D5144801F06EFD6378052B20
:1032F00001D005236370002518E0FFF7DBFFC8B19C
:103300000D4801F0D5FC054600B1FEE76378052BBA
:103310001CBF052363707F23E37300F0D8FD3044A6
:103320002061002104F15C0000F0C8FA284670BD5D
:103330000D25FBE70C25F9E7900800202DE9F04763
:103340000829DDE9088904460D461E4603D011F020
:10335000EF0F28D0FEE780F8582000F1240C03F18D
:10336000100E18685968674603C708337345BC4692
:10337000F7D1434604F1340C08F1100E186859686F
:10338000674603C708337345BC46F7D14B4604F183
:10339000440C09F1100E18685968674603C70833D2
:1033A0007345BC46F7D12046FFF70CFF40B9CDE985
:1033B0000889334629460348BDE8F04700F07AB94A
:1033C000BDE8F087900800204165183000F02EB964
:1033D000C36970B505460C4616462BB121B11AB922
:1033E000026A3146204698472846FFF7EBFE38B977
:1033F00034B1E37D9B0703D521692846FFF7E4FF3D
:103400003246214605F11800BDE8704000F0FAB8D8
:1034100037B50446FFF7D6FE40B3606903681B78F2
:10342000190723D5837D1A0720D40DF10701FFF773
:103430005BFDD8B99DF80730082B17D1606904F1FE
:1034400034038360837DDB070CD4656D94F85810DA
:10345000FFF793FD60692946FFF766FD691C20466A
:10346000FFF7B2FF6069A11DFFF79AFD03B030BD01
:1034700038B5437805465BB1033B022B08D90024DD
:10348000FFF7C6FF28466C80FFF7B8FE204638BD20
:103490000D20FCE72DE9F0411E4686B004465C3065
:1034A0000D46904600F018FA0E2E28D003D836B3F9
:1034B0000B2E26D0FEE70F2EFCD10027AB7D9A07FE
:1034C00005D5AA79394604F1180000F0A1F8204684
:1034D000FFF778FED8B92B681B781B0717D5059026
:1034E0000DF113012846FFF7FFFC9DF81330082B60
:1034F0000DD105A92846FFF707FD20B1FEE70127FA
:10350000DCE70127E3E705992046FFF75DFF3FB9B8
:103510002046FFF765FE18B1A3782A7D9A4218D895
:103520000023A370E378E6B9374604F11800CDE92B
:103530000037424633462946039000F06AF8039864
:10354000DFB1E3780133E370AB7D43F00103AB758A
:1035500001E00133A3702046FFF750FE06B0BDE83E
:10356000F0812046FFF7A0FE07460028DDD06F7DE2
:103570009F4294BF00270127D7E76378022B1CBF27
:103580000223637042463346294600F043F8E5E7DC
:103590004378042B10B5044607D0052B12D0032B1B
:1035A00014D1BDE81040FFF7ADBD436908489979D3
:1035B00001F07EFB616920460E23BDE81040002229
:1035C000FFF768BFBDE81040FFF7D2BD10BD00BFD8
:1035D0009008002008B5FFF7DBF9BDE8084024306B
:1035E000FFF7D6BF08B54165FFF7ECFD20B9BDE890
:1035F0000840024800F05FB808BD00BF90080020F6
:10360000704700000148FFF7B9BB00BFA4080020C5
:10361000704770470148FFF7CDBB00BFA4080020EA
:103620000148FFF7E1BB00BFA4080020704700007D
:10363000014801F092BA00BF90080020014801F053
:103640008FBA00BF90080020014801F045BB00BFC1
:103650009008002090F88D3013B1123000F056B968
:10366000704790F88D3013B1123000F055B97047A3
:1036700010B490F88D4024B15DF8044B123000F086
:1036800051B95DF8044B704790F88D3013B112308A
:1036900000F04EB97047123000F050B9123000F00F
:1036A00053B900000048704700F8FF0708B5FFF75E
:1036B000F9FF08BD704770472DE9F0479846DFF8DD
:1036C000849000230D4616460B70824657461AF822
:1036D000010BA8B35C2825D19AF80020A2F10903B8
:1036E000DBB2172B0DD95C2A0FD1384608F048FF02
:1036F00051460246384607F04FFF1AF8013C23B9FD
:10370000E4E729FA03F3DB07EFD42B781BB11AF8AF
:10371000022C002ADAD1434511D25A1C2A7046F8ED
:103720002370D3E70938C4B2172CEED829FA04F471
:10373000E44314F00104E8D10AF8014CC6E707207D
:10374000BDE8F087130080004368496810B59C1AF3
:103750008A1AD20FB2EBD47F08BF5B1A4FEAD4703B
:1037600008BFD80F10BD000070B505680C4625B91C
:10377000BDE870404B68084818478B6898476A68EE
:10378000831A002B01462368B8BF121ABDE87040A7
:103790000148A8BF002218479008002038B50C4601
:1037A0001146A2689442034606D00568AC4204D193
:1037B0000260FFF7D9FFA46038BD2A460021002A25
:1037C000F9D0944208D011469268F8E78B68002B34
:1037D000F1D09B688B60EEE70029F7D1002DEAD08D
:1037E000AA681A60E7E72DE9F047936805460C469A
:1037F000164698473246814621462846FFF7CEFFB7
:10380000D5F800A04FF00008574647B14A46394660
:103810002046FFF799FF10B9B846BF68F5E7B8F141
:10382000000F08D1C4F808A031462C602846BDE836
:10383000F047FFF799BFD8F80830A360C8F80840F0
:10384000BDE8F08770B5066804460D467EB18B680A
:1038500098477368C01A002809DB20462A4631467B
:10386000FFF79CFF33683046BDE870401847294693
:103870002046BDE87040FFF777BF000010B5044652
:10388000FEF797FF30B104F108000349BDE810408E
:10389000FFF7D8BF10BD00BFE4E200004160024A5C
:1038A00001460248FFF79FBFD8E200009C080020B5
:1038B000002A00DAFEE71144FFF7F0BF13B5044613
:1038C000019100F015FB019A0146204602B0BDE8C7
:1038D0001040FFF7EDBF00000146024A0248FFF723
:1038E0005DBF00BFD8E200009C08002010B5044670
:1038F000FEF75FFF30B104F10C000349BDE8104052
:10390000FFF7A0BF10BD00BFD8E200000148FFF7DD
:103910005FBD00BFB40800200148FFF7B3BC00BF83
:10392000B40800200148FFF7B5BD00BFB40800206F
:103930000148FFF715BC00BFB40800200148FFF79D
:1039400047BD00BFB4080020134602480022FFF71D
:10395000A1BD00BFB40800202DE9F048204C460B63
:1039600046EAC1464D0BA6FB046704FB05774FEA08
:10397000177C340F44EA071443F6095E4FEA4C26DD
:1039800046EAD4566702A4FB0E45021B0EFB0C55FB
:1039900061EB050313480021994208BF904205D20C
:1039A000114B124A1248902107F078FC114940F25D
:1039B00031445443A2FB01BC01FB03444FF0FF31EF
:1039C0001BEB0101A44447F6FF724CEB0202D00B43
:1039D000C0194FF0000146EB0101BDE8F08800BFBF
:1039E000D07B6308452C1600F0E200000BE40000D9
:1039F000FEE200007B2DE8BD00F1402000F5003024
:103A0000002382B0036003680193019B02B07047FA
:103A1000264B37B519460120D3E84F2FD2B28DF887
:103A200007209DF8072062B1BFF32F8F204B1A6843
:103A3000204B12B91A68D20736D5186802304008F0
:103A400030E0C3E8420F002AE6D11B4B0222C3F844
:103A50000823BFF35F8F03F58273164A1B684BB1CF
:103A6000136801331360BFF35F8F4FF48270FFF769
:103A7000C3FF01231068104C022501304008C4F830
:103A80000453BFF35F8F00240C705BB11368D90738
:103A900005D40A4B0A4A0B48EA2107F0FFFB1368DA
:103AA0000133136003B030BD1868C8E7290900204E
:103AB000044102402C0900200040024085E3000040
:103AC00026E400009DE300002DE9F04106460C4687
:103AD000FFF79EFF0546BFF35F8FDFF82080D8F821
:103AE0000475BFF35F8FFFF793FF3060854218BF07
:103AF000D8F804752760BDE8F08100BF004002409F
:103B000008B5094B020103EB0010084B4168C3F8EC
:103B10004813C168C3F808130089FFF76DFF044B11
:103B20000021995408BD00BF3CE400000040024061
:103B3000380900202DE9F843314CDFF8CCC0174696
:103B400004EB071EDDE90832DEF80C60CCF80863F0
:103B50009842DEF80460CCF844634FEA07151E462D
:103B60003ED9A0EB030CBCF1000F39DA003342F16F
:103B7000FF32944600260A184FF0000343F1000379
:103B800016EB02084CEB030937B94FF47A7303FBC9
:103B900009F2A8FB0389914440464946FFF7DCFE41
:103BA00043F60953A0FB038903FB019940F2FF137D
:103BB00020F07F46002118EB030049EB0101C7B15B
:103BC000400A40EAC150490A0E4B0F4A2B44C3E950
:103BD0000201635903F5A87342F82360BDE8F88336
:103BE000B042C6D2361A002EC3DA003342F10102C7
:103BF000BFE74FF4FA22002307F0D4F9E4E700BF4F
:103C00003CE40000380900200040024073B506463D
:103C100001A96846FFF758FF019843F6095140F2A1
:103C2000FF120023E1FB0023540A44EAC3545D0A57
:103C3000009A084BE3FB024546B9204629464FF45B
:103C40007A72002307F0AEF904460D462046294655
:103C500002B070BD0080841EF8B51A4D05EB00134C
:103C60000446060118890F46FFF7C6FE2046FFF7F7
:103C7000CDFF02460B463FB913493144D1E9020159
:103C80008B4208BF82421CD33544104B6A68C3F88C
:103C90004823022CEA68C3F808230AD0032C0CD06E
:103CA000094A012393550A4A1370BDE8F84001F010
:103CB00022BBBDE8F84003F045B8BDE8F84002F08B
:103CC00031BBF8BD3CE40000380900200040024050
:103CD000280900202DE9FF410746884602A803A9CC
:103CE0001646FFF7F1FE039843F6095140F2FF1222
:103CF0000023E1FB0023540A44EAC3545D0A029AFC
:103D0000294BE3FB024546B9204629464FF47A7217
:103D1000002307F047F904460D463246CDE9004539
:103D200041463846FFF706FF204B039AD3F8043587
:103D30009A4203D003A902A8FFF7C6FE039B43F6ED
:103D40000950991C40F2FF120023E0FB0123540AA2
:103D500044EAC3545D0A029A134BE3FB024546B999
:103D6000204629464FF47A72002307F01BF90446D7
:103D70000D460F4A02EB0612D2E902239D4208BF0C
:103D800094424FEA061107D301213046FFF764FF42
:103D900040BF04B0BDE8F081064B0B44DA68034B2A
:103DA000C3F80423F5E700BF0080841E00400240F2
:103DB000380900203CE4000038B52A4840220021A0
:103DC00007F052FC284B00201860284B1870284B35
:103DD00000240025C3E9004501F0A2FD01F0DEFD4D
:103DE0000028FBD0234BC02283F824231022C3F8E1
:103DF00084215A60204A0023C2F808354FF48270AB
:103E0000FFF7FAFD0223C2F844334FF4A070C2F862
:103E10000433FFF7F1FD4FF48033C2F848334FF419
:103E2000A270C2F80833FFF7E7FD4FF40033C2F881
:103E300048334FF4A470C2F80833FFF7DDFD4FF4A8
:103E40008023C2F848334FF4A670C2F80833FFF756
:103E5000D3FD4FF40023C2F84833C2F808330123DE
:103E6000136038BD380900202C09002029090020E2
:103E70003009002000E100E0004002402DE9F0415F
:103E800000260F4F0446B0460E4D87F800802B7871
:103E900033B12E7000F034FC68B12046FEF726FEE8
:103EA0002B7C1BB120462E74FFF720FD3B78002BA6
:103EB000EAD1BDE8F0812046FFF7E0FCF0E700BF63
:103EC00028090020380900200120FFF79FBE08B50F
:103ED000FFF7FAFF4FF47A72002307F063F808BD8A
:103EE000084611460022FFF7F5BE0020FFF708BE86
:103EF00008B5FFF7E9FF08BD084611460122FFF7A4
:103F0000E9BE0120FFF7FCBD70477047044B4FF43A
:103F10008022C3F80823BFF34F8FBFF36F8F704722
:103F200000400240024B4FF48022C3F80423704744
:103F300000400240FFF7DCBF1F2070470222FFF75E
:103F4000C9BE0220FFF7DCBD2DE9FF48154F164E14
:103F500040F2FF14002502A903A8FFF7B5FD029A5D
:103F600043F6095320462946E3FB0201400A039B1E
:103F700040EAC150490AE7FB03018C46834603220D
:103F8000CDE900BC3E215846FFF7D4FD4FF4002395
:103F9000C6F80433D6F80435029A9A42DBD104B04D
:103FA000BDE8F0880080841E0040024037B504461A
:103FB00003200D46FFF72AFE0322CDE90001294622
:103FC0002046FFF7B7FD034B4FF40022C3F804234C
:103FD00003B030BD004002400320FFF791BD000058
:103FE00008B5224B01221A604FF4A070FFF704FDC0
:103FF0001F4A4FF48033C2F848334FF4A270C2F81E
:104000000833FFF7F9FC4FF40033C2F848334FF49C
:10401000A470C2F80833FFF7EFFC4FF48023C2F816
:1040200048334FF4A670C2F80833FFF7E5FC4FF4AD
:104030000023C2F84833C2F808330223C2F8083319
:104040004FF48270C2F84833FFF7D6FCFFF7C4FF85
:10405000084B1022C3F88420C3F88421002283F87F
:104060002423BDE8084001F085BC00BF04400240A5
:104070000040024000E100E0004870474C4102402F
:10408000014B986B704700BF38090020114B1B682B
:1040900070B52BB1104B0222C3F80823FFF7B8FC10
:1040A0000E4D0D4E0024D6F80423EB681A420AD0B8
:1040B0002B8903F1402303F500331B681BB100215A
:1040C000E0B2FFF7C9FD0134042C05F11005EAD177
:1040D00070BD00BF04410240004002403CE40000CB
:1040E000FFF7F2BE03460846114613B1014A08F035
:1040F00027B87047AFE1000013B500220C4601A9B4
:1041000008F054FB019B20601878002818BF062097
:1041100002B010BD2DE9FF471D46624B0C9E1B7877
:1041200007460C469146002B00F0B58059B95E4B0E
:1041300001911B6800935D4B5D4A1B683146284620
:1041400007F0FEFF1DE0D2F800A05A49504608F0E3
:104150004BF88046F0B9584C2378002B00F09B8038
:104160003846FFF7C2FE554A43463146284607F017
:10417000E7FF534B84F800801978384600F098FD2B
:104180004446204632462946FFF7ACFF204604B09D
:10419000BDE8F0874B49504608F026F818BBDFF819
:1041A000188198F80040002C75D13846FFF79DFE25
:1041B000012388F80030DFF8F480434BD8F8002062
:1041C0001A60FFF784FEDFF8E0900146D9F800207E
:1041D0003846FFF785FE0194D9F800300093D8F8EF
:1041E00000303A4AAAE73A49504607F0FDFFE8B9DD
:1041F000DFF8C49099F80040002C4CD1304FDFF824
:10420000E880387802F0FEF898F9000002F00BF927
:1042100002F081F9002840D0022389F8003001948F
:1042200098F9003000933B782A4A87E72A4950469C
:1042300007F0DAFFA8B9022C31D1D9F8040003A99C
:10424000FFF75AFF044600289BD1039B002B26DD75
:10425000154A1360214A00903146284607F070FF46
:104260008FE71F49504607F0BFFFC0B9022C16D197
:10427000D9F8040003A9FFF73FFF0446002880D1C6
:10428000039B002B01DC5A1C09D1084A1360002251
:104290000092144AE0E70D2473E7012471E7072434
:1042A0006FE700BF780900201C00002020000020DC
:1042B0007CE40000A3E200007A090020CDE40000C5
:1042C000000000209DE200007C09002009E50000BC
:1042D0004FE5000057E5000097E50000A0E500006D
:1042E000DCE50000E2E50000800900207FB51D4606
:1042F0001A4B089E1B780C46002B2DD099B9184BF1
:10430000184A1978184B2846002908BF1346174A3F
:10431000314607F015FF204632462946FFF7E2FEF8
:10432000204604B070BD106803A9FFF7E5FE0446FF
:104330000028F0D1039B002B094B14BF012200225F
:104340001A70094A074B009018BF13463146084AB5
:10435000284607F0F5FEDEE70D24DCE778090020AB
:10436000790900201CE6000018E600001FE60000A6
:104370002CE600007FB51D46164B089E1B780C46A8
:1043800033B379B9144B154AB3F900303146284696
:1043900007F0D6FE204632462946FFF7A3FE204608
:1043A00004B070BD106803A9FFF7A6FE04460028FC
:1043B000F0D1039B002B09DB074A1BB21380314667
:1043C0000090074A284607F0BBFEE3E70724E1E731
:1043D0000D24DFE778090020180000204EE60000D9
:1043E00058E6000073B51D46134B069E1B780C461D
:1043F000F3B1F9B900F0D6FF00280346B8BFC31CDB
:10440000424202F0030200F0030058BF504219225A
:1044100050430090094A9B103146284607F090FE11
:10442000204632462946FFF75DFE204602B070BDA9
:104430000D24F5E70724F3E77809002077E600006C
:104440007FB51D461B4B089E1B780C4683B389B96C
:1044500002A802F0AEF89DF80930174A3146284606
:1044600007F06EFE204632462946FFF73BFE204607
:1044700004B070BD106803A9FFF73EFE0446002893
:10448000F0D1039BFF2B11D8ADF80A008DF808007E
:1044900002A88DF8093002F085F89DF80930074A26
:1044A00000943146284607F04BFEDBE70724D9E7A6
:1044B0000D24D7E77809002083E6000097E6000086
:1044C0002DE9FF411D465E4B0A9E1B780F461446A0
:1044D000002B00F0B0800129D2F800802BD103A975
:1044E0004046FFF709FE0446E0B9039B1F2B19461F
:1044F00086BF03F01F01534A4FF0A04201F5E07060
:10450000DBB252F82000C00754BFD2F81025D2F811
:104510000425CA4002F00102009231464A4A284668
:1045200007F00EFE204632462946FFF7DBFD204607
:1045300004B0BDE8F0814549404607F055FEE0B9BA
:10454000022F7AD1606803A9FFF7D6FD0446002840
:10455000E8D1039B1F2B184686BF3A4903F01F0082
:104560004FF0A04101228240C1F80825384ADBB251
:104570003146284607F0E4FDD4E73649404607F0C7
:1045800033FEC0B9022F58D1606803A9FFF7B4FD0C
:1045900004460028C6D1039B1F2B184686BF294915
:1045A00003F01F004FF0A04101228240C1F80C250A
:1045B000DBB2294ADCE72949404607F015FED0B9AD
:1045C000022F3AD1606803A9FFF796FD0446002840
:1045D000A8D1039B1F2B1A4688BF03F01F0202F5C8
:1045E000E0728CBF17494FF0A041032041F8220030
:1045F000DBB21B4ABCE71B49404607F0F5FDE0B9BA
:10460000022F1AD1606803A9FFF776FD044600283F
:1046100088D1039B1F2B1A4688BF03F01F0202F5A7
:10462000E0728CBF07494FF0A041002041F8220002
:10463000DBB20D4A9CE70D2474E7072472E700BF44
:104640007809002000030050C0E60000CFE600001B
:10465000D3E60000E1E60000E5E60000F3E6000036
:10466000F7E6000006E7000009E700002DE9F34740
:10467000DDF82890D2F800A0134F80460D4616466C
:10468000002457F834100193504607F0ADFD019B0C
:1046900090B907EBC404012D6468CDF8289005F1AA
:1046A000FF3198BF0246C9B288BF321D4046A446BA
:1046B00002B0BDE8F04760470134062CE1D1232069
:1046C00002B0BDE8F08700BF58E70000094B10B505
:1046D0000446187050B9084B197800F0E9FA2046E2
:1046E00000F0D8FABDE8104000F078BA034B002281
:1046F0001A7010BD78090020000000207A090020FF
:10470000014B1878704700BF78090020014B1870E2
:10471000704700BF00000020014B1870704700BFB9
:10472000800900202DE9F041264B1A78012A044621
:1047300046D1254D2A68002A01DC013235D12046B8
:1047400000F0EEFA14238380204B1978204B8171FE
:10475000D9722049066809889981024603F1100C34
:1047600098461F4603CF6745306071603B4606F1AF
:104770000806F6D1386830601146204600F0ACFAE1
:10478000D8F810300133C8F810302B685A1C1CBF01
:1047900003F1FF332B60FFF79AFB0F4B01461A68BA
:1047A0002046BDE8F041FFF79BBB00221A70FFF7DF
:1047B0009CFBBDE8F041094A0C21052000F01AB924
:1047C000BDE8F0817A0900207C090020000000206B
:1047D00004000020180000201C0000201FE700003B
:1047E000064B00221A6082B01B680193019B044BA8
:1047F0000122C3F804231A6002B0704700D10040C0
:1048000000D00040144B1A6813B51AB3134AD2F8FB
:104810000813C9071ED5002119601B680193019B6D
:10482000D2F808450E4B0F4A19681068091A7F29FB
:1048300006D81968481C186001F07F010A484454E2
:104840001B6812689B1A7F2B81BF044A0123C2F8A0
:104850000833536002B010BD00D1004000D00040CA
:10486000080A0020040A00208109002070B5802277
:10487000234D244C2448002106F0F6FE2349002352
:104880002B602360C02381F80D334FF40053C1F82F
:1048900080310B601E49D1F8040540F00100C1F8D9
:1048A0000405D1F8000220F00100C1F80002FFF772
:1048B00097FF2B46224611681868091A0329FAD96E
:1048C00011681868091A032917D90F4D042400200C
:1048D000166819688E421DBF19684E1C01F07F01D1
:1048E00000211CBF695C1E600002013C40EA01001F
:1048F000EED1BDE8704007F055BB0020F9E700BFDE
:10490000040A0020080A00208109002000E100E0DC
:1049100000D00040074A0123C2F808335360064B19
:104920004FF40052C3F88020C3F88021002283F89E
:104930000D23704700D0004000E100E02DE9F04772
:10494000234E337803F0FF042BB1224B224A234835
:10495000C72106F0A3FC01233370002836D00029BC
:1049600034D0DFF880801E4F2546C146D8F800407D
:104970003B68E41AE4B24B1B9C42C8BFDCB2F4B102
:10498000DFF864E000EB050C0022D9F800A03B68DA
:104990009A451EBF3B6803F1010A03F07F0302F151
:1049A00001021ABF1EF80330C7F800A0002394428A
:1049B0000CF8013BE9D8FFF713FF2C44A5B28D4258
:1049C000D4D3002000233370BDE8F0870720F9E737
:1049D000010A002088E700000CE800009CE70000C6
:1049E000040A0020080A00208109002000F0ECBC25
:1049F00000F0F8BC0CB407B504AB53F8042B0193DA
:104A000000F0F6FC03B05DF804EB02B070477047AD
:104A1000704700004FF08043044AD3F8001411603F
:104A20004FF0FF32C3F80024704700BF0C0A00208B
:104A30007047000008B500F023FF0A4B187018B14A
:104A4000094B04221A6008BDBFF34F8F0749084B7A
:104A5000CA6802F4E0621343CB60BFF34F8F00BF1C
:104A6000FDE700BF9C1A00200C0A002000ED00E0CA
:104A70000400FA050B4B1B68D9070BD49A070BD41B
:104A800059070BD41A070BD413F4F81F14BF0620D0
:104A900000207047012070470820704702207047AF
:104AA000032070470C0A002070470000012303FA1E
:104AB00000F0084A82B0C04352E8003F0193019BD6
:104AC00003400193019B42E800310029F4D102B078
:104AD000704700BF340A0020074A82B052E8003F06
:104AE0000193019B23F001030193019B42E80031F4
:104AF0000029F3D102B07047340A00200123094A8B
:104B000082B003FA00F052E8003F0193019B034397
:104B10000193019B42E800310029F4D102B000F07A
:104B2000EABB00BF340A0020F4230B70CE234B7085
:104B300036238B704FF0805382B01A6E5B6EC1F8D3
:104B40000330CA7102B0704707B501A8ADF8041070
:104B500001F072FC03B05DF804FB084601F06EBC86
:104B600007B501A8ADF8041001F06AFC03B05DF8C8
:104B700004FB00000D4B012210B51A700C4B0D4ABE
:104B80001A600D4A002313700C4A1824184604FBBF
:104B900003F10133102B8850F9D109481822002164
:104BA00006F062FDBDE8104001F057BC2A0A002063
:104BB000C00B0020D90B0020380A0020400A00203A
:104BC000100A002008B501F08DFC01F06BFC024BCF
:104BD00000221A6008BD00BF340A0020084B70B5DF
:104BE0000024084D1C602646286818B101382E6044
:104BF00001F094FC0134102C05F11805F4D170BDBE
:104C0000340A0020400A002008B50E4B1B78A3B9D7
:104C100001F05CFC0238052808D8DFE800F010033A
:104C200005030505022008BD0320FCE7064B074AE3
:104C300007484FF4B57106F031FB0020F3E701207F
:104C4000F1E700BF2A0A0020D0EB0000B9E800001D
:104C50001DE80000034B1A7812B10020187070474D
:104C60000D2070472A0A002010B5084C22784AB956
:104C7000FFF7CAFF012803D0054B1B68DB0703D5EC
:104C800001232370002010BD0D20FCE72A0A00201C
:104C9000340A002008B501F025FC18B1FFF71CFF0D
:104CA000002008BDFFF718FFFFF728FFF8E7000016
:104CB00008B5084601F0A6FB064B93F9000001F089
:104CC000B2FB01F012FCFFF707FF00280CBF0D201C
:104CD000002008BD290A002070B50B688A8803F8F7
:104CE000012C0C460646887901F08CFBA17D2068DA
:104CF00011F0020100F1FF300ED001F05CFC012543
:104D0000FFF7EAFE21463046FEF7ABFC15B902205C
:104D1000FFF7F4FE002070BD01F0EDFB0546EFE764
:104D200000487047C00B002008B5064B4FF42060C8
:104D300043F00103984701F00DFCBDE8084001F085
:104D40000BBC00BF50E900001B20704701F015BCF0
:104D5000084601F014BC084601F013BC07B5ADF8D5
:104D6000041001A8002101F00EFC00280CBF032054
:104D7000002003B05DF804FB08B50846012101F0EE
:104D800002FC00280CBF0320002008BD07B5ADF8C9
:104D9000041001A8002101F0FFFB00280CBF0A202D
:104DA000002003B05DF804FB08B50846012101F0BE
:104DB000F3FB00280CBF0A20002008BD002001F0F2
:104DC000EEBB012001F0EBBB4FF47A7310B55A43F0
:104DD0000A4C0B4B226008461970FFF77DFE01F06C
:104DE00011FB206801F093FB20B10520FFF75EFE68
:104DF000002010BD0520FFF781FEF9E7300A0020F2
:104E00002C0A002010B50C4621B101F00EFB2070D9
:104E1000002010BD0720FCE708B5034B08461970B9
:104E200001F001FB002008BD290A002013B50C4643
:104E300049B101A801F0BDFB9DF805305E3B237030
:104E4000002002B010BD0720FBE711F15E0F13B583
:104E5000084610DB0024ADF805408DF807408DF8BA
:104E6000044001F0F3FA8DF8050001A801F09AFB67
:104E7000204602B010BD0720FBE70000F8B5002671
:104E8000574D044637462B6873B1FFF739FC02468D
:104E900000287FD0002229462046FEF7FCFB286828
:104EA0002F60013801F03AFB0136102E05F118058C
:104EB000E9D14C4D2B689F0714D50120FFF7F6FD73
:104EC000FFF71EFC484E0346002868D047490022E1
:104ED0002046FEF7E3FB306820B1013801F01EFBED
:104EE000002333602B685E070CD50220FFF7DEFD40
:104EF000FFF706FC024600285AD03C490F22204604
:104F0000FEF7CCFB2B6818070CD50320FFF7CEFD6E
:104F1000FFF7F6FB0246002850D034490E22204607
:104F2000FEF7BCFB2B68D9060DD50420FFF7BEFDAC
:104F3000FFF7E6FB2E4B01461A78002844D00021EB
:104F40002046FEF7A8FB2B685A0608D50620FFF777
:104F5000ADFD284B204693F90010FEF795FB2C6819
:104F600014F0010406D001F0BDFA88B30020FFF769
:104F70009DFD00242B689B062FD51F4B187801F050
:104F800041FA1E4B186801F0C2FA18BBBDE8F840A0
:104F900000F0B1B929462046FEF75CFB7FE7326896
:104FA0001249002A18BF32462046FEF761FB92E7FD
:104FB0000E490F232046FEF75BFBA3E70B490E23A8
:104FC0002046FEF755FBADE72046FEF743FBBAE768
:104FD0000124CFE70520FFF769FD002CD6D1F8BDED
:104FE000400A0020340A0020100A0020C00B0020D4
:104FF000380A00202B0A00202C0A0020300A00204A
:105000002DE9F74FDFF8B890934604468A461F46CD
:10501000002618224D4602FB06F353F8091000291A
:105020003AD109EB030818224046019306F01CFB15
:10503000019B621C49F803202378A8F8043088F803
:1050400015A088F816B001F0ECF988F8060062782F
:10505000DFF8708012F0200228D1182303FB0655D8
:10506000EB7D62F30003EB75FEF742FF2178064605
:10507000384601F0EEF90446FEF726FF361B801B8A
:1050800061F100010023C5E9020188F8003003B096
:10509000BDE8F04F00F02FB90136102EBBD1054B03
:1050A000054A064840F2623106F0F8F898F8002008
:1050B000D3E700BF8BE80000CDE800001DE800004A
:1050C000400A0020280A0020013808B5104B0828A3
:1050D00016D8DFE800F0050F1113131313051300A2
:1050E00012221A700B4B00221A700420BDE80840EF
:1050F000FFF704BD1122F4E71622F2E70122F0E7E0
:10510000054B064A064840F2A73106F0C7F800BF33
:10511000380A0020280A0020D0EB0000EFE8000049
:105120001DE800004378024AC3F300131370704770
:10513000280A00202DE9F0471F461A4BDDF820A071
:1051400083420D46904606D0174B184A184840F245
:10515000C33106F0A3F8174C29B92160BDE8F04728
:105160000120FFF7CBBCFEF7C3FEA946064619F89F
:10517000011B504601F06DF98246FEF7A5FE02467E
:10518000A6EB0A00121A61F10003C4E90223C4F875
:1051900000902B78A38084F81580A77501F041F961
:1051A000A071DBE7D80B0020A1E8000009E90000AE
:1051B0001DE80000100A002008B50F4B834206D0FE
:1051C0000E4B0F4A40F2DB310E4806F067F801390A
:1051D00006290CD8DFE801F00409090409040400D9
:1051E0000220BDE80840FFF789BC0320F9E7064B21
:1051F000034A40F2ED31E7E7D80B0020A1E80000B8
:105200002EE900001DE80000D0EB000008B501F019
:1052100019F9034B1870BDE808400620FFF76EBC73
:105220002B0A00206FF0630070477047704705F04D
:1052300067BE000010B50C4C00F068F8FFF7C2FC28
:10524000FFF7F6FB22780AB9FFF7E2FB207800F0BF
:1052500013FBFFF75FFBFEF7C3FEFFF7C9FBBDE8DB
:105260001040002005F08EB89C1A002010B5144C98
:1052700023780BB1FFF7DEFF124B134913480122CD
:10528000C3F8402505F072F8002005F079F800F029
:105290002FFBFFF7ABFBFEF78FFDFFF7E7FA237855
:1052A0000BB9FFF7B4FB207800F0E4FAFFF7B2FB8C
:1052B000FFF760FC00F020F80023237010BD00BF52
:1052C0009C1A002000E00140FFAE0000FDAE00008F
:1052D000014B1878704700BF9C1A002010B5044697
:1052E000FFF7CCFD00F0CAFA00F016F82046BDE842
:1052F0001040FEF7C3BD7047034B00221A60A3F2B3
:10530000045301221A60704704C50040014B01227A
:105310005A60704700C000401F4B2DE9F7431F4CF7
:10532000D3F8002125688AB10022C3F80021D3F800
:1053300000210192019AD3F80825D3F80835920587
:1053400044BF6FEA83536FEA93532360FEF7BCFDBB
:10535000134B1A680FF23809D9E90089861A5A687E
:1053600061EB0207B94508BFB0453FBF0A4A0126B5
:105370001660C3E900012368AB4204D003B0BDE866
:10538000F04301F057B803B0BDE8F083AFF30080FD
:1053900080C3C9010000000000C00040600C002074
:1053A000580C0020014B1868704700BF600C0020AB
:1053B00070477047034B18680028B8BF033040F3AC
:1053C00087007047600C002008B50121002000F024
:1053D00011F90028A2BF024B01221A7008BD00BFBC
:1053E000640C0020014B00221A707047640C0020EE
:1053F000F0B51F461D4B1B78C5B00446164693B347
:10540000FEF765FD03AD1A4B1A4A00904FF4807108
:10541000284606F095FE601E032896BF164B174BD4
:1054200053F82030164AED210DF11F0006F088FEDA
:10543000133084B23B463246C4F5807115FA80F0D1
:1054400007F0F6F900280EDB0444A4B2B4F5807F1F
:1054500028BF4FF48074621C0A2392B229460020B0
:105460002B5500F093F845B0F0BD00BF640C002050
:105470005BE9000063E900008CE9000056E90000E8
:105480006EE900000369C1688B429DBF8268D21833
:1054900002F1FF3203F1FF3394BF501A581A7047DC
:1054A0002DE9F843D0E902940546A9EB04084068C9
:1054B000904520440F46144404D905F0D3FFEC6016
:1054C000BDE8F8834246A4EB090405F0CBFF686809
:1054D000224607EB0801F0E72DE9F843C5680646C8
:1054E000894617464FF000083469B3687068A542D2
:1054F00028BFE418013C621B5C1BBC4228BF3C4631
:10550000944228BF144649462844224605F0AAFF83
:10551000B3682544AB4208BF00253F1BA044A1440B
:10552000F560E1D14046BDE8F883000010B5114CAC
:10553000114AA2610223C4E90433104BE361A2645F
:105540004FF400730E4A0F492362E26400231022D5
:10555000E01DA3626362E362A3656365E3652265A0
:1055600006F0ACFF0849204606F0A8FF2023A371EF
:1055700010BD00BFA01A00209CE90000750C00209F
:10558000650C0020A5E90000A9E90000F8B5184C59
:10559000182300FB033503FB00402544C46A012C9B
:1055A0000F4616460FD0022C1AD0F4B92846FFF742
:1055B00069FF864205D8324639462846FFF770FF14
:1055C00034462046F8BD2846FFF75CFF8642344645
:1055D00028BF0446224639462846FFF761FFF0E718
:1055E0002846BDE8F840FFF777BF0024E9E700BF91
:1055F000A01A002070B50C4D2B7804460E460BB94E
:10560000FFF794FF2B69A3420BD9002000F04CF95F
:10561000182000FB04540020E66200F047F9002047
:1056200070BD4FF0FF30FBE7A01A002037B50478BB
:105630003CB1012C10D0184B184A19485B2105F0D9
:105640002DFE184B1B782BB14FF0A0434FF080423A
:10565000C3F80C2503B030BD4FF0A0434FF080429B
:10566000C3F80825838801930F4B104A1B880093C9
:105670000F4B10491D681048104B12881B680968B1
:105680000068A8470028E5D00D4B1C7003B0BDE8AA
:105690003040FFF730BE00BFD0EB0000A8EA0000AA
:1056A000B0E90000980E0020880E0020900E002027
:1056B000780E00208C0E00207C0E0020840E00202E
:1056C000800E002070470000054B1A7832B100228E
:1056D0001A70044B044A1B6810681847704700BFD3
:1056E000800E0020940E00207C0E00202DE9F04159
:1056F000224D84460E4617460FCD86B06C460FC429
:1057000095E8030084E8030064462CB91C4B1D4A4D
:1057100086211D4805F0C2FD1EB91C4B194A872180
:10572000F7E71B4D2B6823BB1C210422CDE9001297
:105730004FF003081D22CDE9028206228DF81620C3
:105740001448154AADF81030694600F08DFA18B1CA
:10575000124B0C4A9521DCE74FF0A0434FF08042FA
:10576000C3F80825C3F878870D4B2C601E600D4BDD
:105770001F60002006B0BDE8F08100BF90EA000085
:105780002CEA0000B9EA0000B0E9000046EA000097
:10579000780E0020F0EA00002D5600005FEA0000BD
:1057A000940E00207C0E0020014800F045BB00BF95
:1057B000F0EA0000064A00231360064A1380064AF6
:1057C0001360064A1380064A1370FFF7EDBF00BF4F
:1057D0008C0E0020900E0020840E0020880E0020E9
:1057E000980E002037B5174C174DD4F800442D689B
:1057F00004F003042DB9154B154AB321154805F0E3
:105800004DFD023C012C1AD9134C144D08B12060F7
:105810002980134913480AB10A600380124B9DF88E
:1058200018201A70038800930B682A8821680F4893
:1058300000F022FB18B10E4B054AC721DEE700201D
:1058400003B030BD00300040780E002075EA000043
:10585000CEEA0000B0E900008C0E0020900E00207F
:10586000840E0020880E0020980E0020F0EA000030
:105870005FEA0000FFF726BFFFF79CBFFFF724BFDA
:105880000020704772B6024A1368013313607047F4
:105890009C0E0020034A1368013B136003B962B6F3
:1058A000704700BF9C0E0020FFF7ECBFFFF7F2BF70
:1058B00038B5074C051E04F1080318BF1C462368C1
:1058C0002BB11A6822605B6828469847F7E738BD15
:1058D000A80E002020B9054B01225A70FFF7E8BF3F
:1058E000012802D1014A9070F8E77047A00E00200D
:1058F00038B5094C23786BB908486360A36023610D
:10590000E36000F091F8054600F09AF80123237057
:10591000284638BD8525FBE7A00E0020D55800009D
:1059200038B5134CA378054603F0FF0073B115B1E9
:105930006B68012098470020FFF7B6FFE36801334A
:10594000E3600020BDE83840FFF7B0BFFFF7ACFFD1
:1059500025B1226913463BB92A602561E368002B13
:10596000ECD100F083F8E9E79D42F7D01B68F2E73D
:10597000A00E002038B5084C0020FFF795FFE36823
:10598000013BE360E56815B900F082F8A570BDE859
:1059900038400020FFF78ABFA00E00204FF0804360
:1059A000D3F81804C0F300407047000038B5134C1A
:1059B0006378054603F0FF0073B115B16B680020F2
:1059C00098470020FFF770FF636801336360002091
:1059D000BDE83840FFF76ABFFFF766FF25B1A26850
:1059E00013463BB92A60A5606368002BECD100F038
:1059F0005BF8E9E79D42F7D01B68F2E7A00E0020B4
:105A000038B5084C0020FFF74FFF6368013B636027
:105A1000656815B900F05AF86570BDE83840002097
:105A2000FFF744BFA00E0020044A137923B90121D7
:105A3000106091801846704785207047B40E002092
:105A4000084B1A68D2075FBFE02283F800230122C7
:105A50001A604FF080420123C2F81835024A1370D1
:105A6000704700BF00E100E0181B0020074B002238
:105A70001A6082B01B680193019B4FF080430222A1
:105A8000C3F8042301229A6002B070470401004069
:105A9000044B01221A604FF08042D2F81834DB0325
:105AA000FBD470470C000040074B00221A6082B004
:105AB0001B680193019B4FF080430122C3F804232C
:105AC0001A6002B0704700BF00010040074B01227E
:105AD0001A604FF08042D2F80C3403F00113B3F196
